{
  "contractName": "IdentitiesChain",
  "abi": [
    {
      "inputs": [],
      "payable": false,
      "stateMutability": "nonpayable",
      "type": "constructor"
    },
    {
      "anonymous": false,
      "inputs": [
        {
          "indexed": false,
          "name": "nombre",
          "type": "string"
        },
        {
          "indexed": false,
          "name": "fecha",
          "type": "string"
        },
        {
          "indexed": false,
          "name": "sexo",
          "type": "string"
        },
        {
          "indexed": false,
          "name": "ciudad",
          "type": "string"
        },
        {
          "indexed": false,
          "name": "departamento",
          "type": "string"
        },
        {
          "indexed": false,
          "name": "url",
          "type": "string"
        },
        {
          "indexed": false,
          "name": "adr",
          "type": "string"
        }
      ],
      "name": "Cedulita",
      "type": "event"
    },
    {
      "anonymous": false,
      "inputs": [
        {
          "components": [
            {
              "name": "nombre",
              "type": "string"
            },
            {
              "name": "url",
              "type": "string"
            },
            {
              "name": "hash",
              "type": "string"
            }
          ],
          "indexed": false,
          "name": "docs",
          "type": "tuple"
        }
      ],
      "name": "Documentos",
      "type": "event"
    },
    {
      "anonymous": false,
      "inputs": [
        {
          "components": [
            {
              "name": "duenio",
              "type": "address"
            },
            {
              "components": [
                {
                  "name": "nombre",
                  "type": "string"
                },
                {
                  "name": "url",
                  "type": "string"
                },
                {
                  "name": "hash",
                  "type": "string"
                }
              ],
              "name": "docs",
              "type": "tuple[]"
            }
          ],
          "indexed": false,
          "name": "perms",
          "type": "tuple[]"
        }
      ],
      "name": "Permisos",
      "type": "event"
    },
    {
      "constant": false,
      "inputs": [
        {
          "name": "_usuario",
          "type": "string"
        },
        {
          "name": "_clave",
          "type": "string"
        },
        {
          "name": "sender",
          "type": "string"
        }
      ],
      "name": "iniciarSesion",
      "outputs": [
        {
          "name": "",
          "type": "bool"
        }
      ],
      "payable": false,
      "stateMutability": "nonpayable",
      "type": "function"
    },
    {
      "constant": false,
      "inputs": [
        {
          "name": "_usuario",
          "type": "string"
        },
        {
          "name": "_clave",
          "type": "string"
        },
        {
          "name": "sender",
          "type": "string"
        }
      ],
      "name": "nuevoUsuario",
      "outputs": [
        {
          "name": "",
          "type": "string"
        }
      ],
      "payable": false,
      "stateMutability": "nonpayable",
      "type": "function"
    },
    {
      "constant": true,
      "inputs": [],
      "name": "getUsuario",
      "outputs": [
        {
          "name": "",
          "type": "string"
        }
      ],
      "payable": false,
      "stateMutability": "view",
      "type": "function"
    },
    {
      "constant": false,
      "inputs": [
        {
          "name": "_nombre",
          "type": "string"
        },
        {
          "name": "_fecha",
          "type": "string"
        },
        {
          "name": "_sexo",
          "type": "string"
        },
        {
          "name": "_ciudad",
          "type": "string"
        },
        {
          "name": "_departamento",
          "type": "string"
        },
        {
          "name": "_url",
          "type": "string"
        }
      ],
      "name": "nuevaCedula",
      "outputs": [],
      "payable": false,
      "stateMutability": "nonpayable",
      "type": "function"
    },
    {
      "constant": false,
      "inputs": [
        {
          "name": "dir",
          "type": "string"
        }
      ],
      "name": "getCedula",
      "outputs": [
        {
          "name": "",
          "type": "string"
        },
        {
          "name": "",
          "type": "string"
        },
        {
          "name": "",
          "type": "string"
        },
        {
          "name": "",
          "type": "string"
        },
        {
          "name": "",
          "type": "string"
        },
        {
          "name": "",
          "type": "string"
        },
        {
          "name": "",
          "type": "string"
        }
      ],
      "payable": false,
      "stateMutability": "nonpayable",
      "type": "function"
    },
    {
      "constant": false,
      "inputs": [
        {
          "name": "_nombre",
          "type": "string"
        },
        {
          "name": "_url",
          "type": "string"
        },
        {
          "name": "_hash",
          "type": "string"
        },
        {
          "name": "_idDoc",
          "type": "string"
        }
      ],
      "name": "nuevoDocumento",
      "outputs": [],
      "payable": false,
      "stateMutability": "nonpayable",
      "type": "function"
    },
    {
      "constant": false,
      "inputs": [],
      "name": "getDocumentos",
      "outputs": [
        {
          "name": "",
          "type": "string"
        },
        {
          "name": "",
          "type": "uint256"
        }
      ],
      "payable": false,
      "stateMutability": "nonpayable",
      "type": "function"
    },
    {
      "constant": false,
      "inputs": [
        {
          "name": "_destinatario",
          "type": "string"
        },
        {
          "name": "_idDocs",
          "type": "string"
        },
        {
          "name": "idPermiso",
          "type": "string"
        }
      ],
      "name": "compartir",
      "outputs": [],
      "payable": false,
      "stateMutability": "nonpayable",
      "type": "function"
    },
    {
      "constant": false,
      "inputs": [],
      "name": "getPermisos",
      "outputs": [
        {
          "components": [
            {
              "name": "duenio",
              "type": "address"
            },
            {
              "components": [
                {
                  "name": "nombre",
                  "type": "string"
                },
                {
                  "name": "url",
                  "type": "string"
                },
                {
                  "name": "hash",
                  "type": "string"
                }
              ],
              "name": "docs",
              "type": "tuple[]"
            }
          ],
          "name": "p",
          "type": "tuple[]"
        }
      ],
      "payable": false,
      "stateMutability": "nonpayable",
      "type": "function"
    }
  ],
  "bytecode": "0x608060405234801561001057600080fd5b5061253d806100206000396000f3fe608060405260043610610099576000357c0100000000000000000000000000000000000000000000000000000000900463ffffffff16806329eff33b1461009e57806349bc8d18146100ca5780634d1bf271146100f5578063738cbe461461011e578063804851c0146101615780639397243b1461018c578063aa31db82146101c9578063da01959c146101f2578063e65304531461021b575b600080fd5b3480156100aa57600080fd5b506100b3610258565b6040516100c192919061224a565b60405180910390f35b3480156100d657600080fd5b506100df6103ba565b6040516100ec9190612188565b60405180910390f35b34801561010157600080fd5b5061011c60048036036101179190810190611aa0565b6104cf565b005b34801561012a57600080fd5b5061014560048036036101409190810190611a5f565b610885565b60405161015897969594939291906121aa565b60405180910390f35b34801561016d57600080fd5b50610176610ba9565b6040516101839190612129565b60405180910390f35b34801561019857600080fd5b506101b360048036036101ae9190810190611aa0565b610c59565b6040516101c0919061216d565b60405180910390f35b3480156101d557600080fd5b506101f060048036036101eb9190810190611bfa565b610f48565b005b3480156101fe57600080fd5b5061021960048036036102149190810190611b37565b61129e565b005b34801561022757600080fd5b50610242600480360361023d9190810190611aa0565b6115b3565b60405161024f9190612188565b60405180910390f35b6060600080600090505b6001600060405180828054600181600116156101000203166002900480156102c15780601f1061029f5761010080835404028352918201916102c1565b820191906000526020600020905b8154815290600101906020018083116102ad575b50509150509081526020016040518091039020600801805490508110156103b5577fd949eb9f2fa3247c616b58c2cf19a833af36cf2dc9d6ec312ee0bc0dabda50e66001600060405180828054600181600116156101000203166002900480156103625780601f10610340576101008083540402835291820191610362565b820191906000526020600020905b81548152906001019060200180831161034e575b505091505090815260200160405180910390206008018281548110151561038557fe5b90600052602060002090600302016040516103a0919061231a565b60405180910390a18080600101915050610262565b509091565b606060016000604051808280546001816001161561010002031660029004801561041b5780601f106103f957610100808354040283529182019161041b565b820191906000526020600020905b815481529060010190602001808311610407575b505091505090815260200160405180910390206000018054600181600116156101000203166002900480601f0160208091040260200160405190810160405280929190818152602001828054600181600116156101000203166002900480156104c55780601f1061049a576101008083540402835291602001916104c5565b820191906000526020600020905b8154815290600101906020018083116104a857829003601f168201915b5050505050905090565b336002826040518082805190602001908083835b60208310151561050857805182526020820191506020810190506020830392506104e3565b6001836020036101000a038019825116818451168082178552505050505050905001915050908152602001604051809103902060000160006101000a81548173ffffffffffffffffffffffffffffffffffffffff021916908373ffffffffffffffffffffffffffffffffffffffff1602179055506002816040518082805190602001908083835b6020831015156105b4578051825260208201915060208101905060208303925061058f565b6001836020036101000a03801982511681845116808217855250505050505090500191505090815260200160405180910390206001016003836040518082805190602001908083835b60208310151561062257805182526020820191506020810190506020830392506105fd565b6001836020036101000a038019825116818451168082178552505050505050905001915050908152602001604051809103902090806001815401808255809150509060018203906000526020600020906003020160009091929091909150600082018160000190805460018160011615610100020316600290046106a7929190611776565b50600182018160010190805460018160011615610100020316600290046106cf929190611776565b50600282018160020190805460018160011615610100020316600290046106f7929190611776565b505050506001836040518082805190602001908083835b602083101515610733578051825260208201915060208101905060208303925061070e565b6001836020036101000a03801982511681845116808217855250505050505090500191505090815260200160405180910390206009016002826040518082805190602001908083835b6020831015156107a1578051825260208201915060208101905060208303925061077c565b6001836020036101000a0380198251168184511680821785525050505050509050019150509081526020016040518091039020908060018154018082558091505090600182039060005260206000209060020201600090919290919091506000820160009054906101000a900473ffffffffffffffffffffffffffffffffffffffff168160000160006101000a81548173ffffffffffffffffffffffffffffffffffffffff021916908373ffffffffffffffffffffffffffffffffffffffff160217905550600182018160010190805461087c9291906117fd565b50505050505050565b60608060608060608060607fd31f91dc491c3f580fe2e1f76dd7d51ffcde223a111502b1fdb10a72710de3986001600060405180828054600181600116156101000203166002900480156109105780601f106108ee576101008083540402835291820191610910565b820191906000526020600020905b8154815290600101906020018083116108fc575b505091505090815260200160405180910390206002016000016001600060405180828054600181600116156101000203166002900480156109885780601f10610966576101008083540402835291820191610988565b820191906000526020600020905b815481529060010190602001808311610974575b50509150509081526020016040518091039020600201600101600160006040518082805460018160011615610100020316600290048015610a005780601f106109de576101008083540402835291820191610a00565b820191906000526020600020905b8154815290600101906020018083116109ec575b50509150509081526020016040518091039020600201600201600160006040518082805460018160011615610100020316600290048015610a785780601f10610a56576101008083540402835291820191610a78565b820191906000526020600020905b815481529060010190602001808311610a64575b50509150509081526020016040518091039020600201600301600160006040518082805460018160011615610100020316600290048015610af05780601f10610ace576101008083540402835291820191610af0565b820191906000526020600020905b815481529060010190602001808311610adc575b50509150509081526020016040518091039020600201600401600160006040518082805460018160011615610100020316600290048015610b685780601f10610b46576101008083540402835291820191610b68565b820191906000526020600020905b815481529060010190602001808311610b54575b505091505090815260200160405180910390206002016005016000604051610b96979695949392919061227a565b60405180910390a1919395979092949650565b60607fef59d30396bef67a777ab4515481b8b8cda0dffc7f846e1779660cd4789c76cb600160006040518082805460018160011615610100020316600290048015610c2b5780601f10610c09576101008083540402835291820191610c2b565b820191906000526020600020905b815481529060010190602001808311610c17575b50509150509081526020016040518091039020600901604051610c4e919061214b565b60405180910390a190565b6000836040516020018082805190602001908083835b602083101515610c945780518252602082019150602081019050602083039250610c6f565b6001836020036101000a038019825116818451168082178552505050505050905001915050604051602081830303815290604052805190602001206001836040518082805190602001908083835b602083101515610d075780518252602082019150602081019050602083039250610ce2565b6001836020036101000a03801982511681845116808217855250505050505090500191505090815260200160405180910390206000016040516020018082805460018160011615610100020316600290048015610d9b5780601f10610d79576101008083540402835291820191610d9b565b820191906000526020600020905b815481529060010190602001808311610d87575b505091505060405160208183030381529060405280519060200120148015610f1b5750826040516020018082805190602001908083835b602083101515610df75780518252602082019150602081019050602083039250610dd2565b6001836020036101000a038019825116818451168082178552505050505050905001915050604051602081830303815290604052805190602001206001836040518082805190602001908083835b602083101515610e6a5780518252602082019150602081019050602083039250610e45565b6001836020036101000a03801982511681845116808217855250505050505090500191505090815260200160405180910390206001016040516020018082805460018160011615610100020316600290048015610efe5780601f10610edc576101008083540402835291820191610efe565b820191906000526020600020905b815481529060010190602001808311610eea575b505091505060405160208183030381529060405280519060200120145b1515610f2657600080fd5b8160009080519060200190610f3c9291906118cd565b50600190509392505050565b85600160006040518082805460018160011615610100020316600290048015610fa85780601f10610f86576101008083540402835291820191610fa8565b820191906000526020600020905b815481529060010190602001808311610f94575b505091505090815260200160405180910390206002016000019080519060200190610fd49291906118cd565b50846001600060405180828054600181600116156101000203166002900480156110355780601f10611013576101008083540402835291820191611035565b820191906000526020600020905b815481529060010190602001808311611021575b5050915050908152602001604051809103902060020160010190805190602001906110619291906118cd565b50836001600060405180828054600181600116156101000203166002900480156110c25780601f106110a05761010080835404028352918201916110c2565b820191906000526020600020905b8154815290600101906020018083116110ae575b5050915050908152602001604051809103902060020160020190805190602001906110ee9291906118cd565b508260016000604051808280546001816001161561010002031660029004801561114f5780601f1061112d57610100808354040283529182019161114f565b820191906000526020600020905b81548152906001019060200180831161113b575b50509150509081526020016040518091039020600201600301908051906020019061117b9291906118cd565b50816001600060405180828054600181600116156101000203166002900480156111dc5780601f106111ba5761010080835404028352918201916111dc565b820191906000526020600020905b8154815290600101906020018083116111c8575b5050915050908152602001604051809103902060020160040190805190602001906112089291906118cd565b50806001600060405180828054600181600116156101000203166002900480156112695780601f10611247576101008083540402835291820191611269565b820191906000526020600020905b815481529060010190602001808311611255575b5050915050908152602001604051809103902060020160050190805190602001906112959291906118cd565b50505050505050565b836003826040518082805190602001908083835b6020831015156112d757805182526020820191506020810190506020830392506112b2565b6001836020036101000a038019825116818451168082178552505050505050905001915050908152602001604051809103902060000190805190602001906113209291906118cd565b50826003826040518082805190602001908083835b60208310151561135a5780518252602082019150602081019050602083039250611335565b6001836020036101000a038019825116818451168082178552505050505050905001915050908152602001604051809103902060010190805190602001906113a39291906118cd565b50816003826040518082805190602001908083835b6020831015156113dd57805182526020820191506020810190506020830392506113b8565b6001836020036101000a038019825116818451168082178552505050505050905001915050908152602001604051809103902060020190805190602001906114269291906118cd565b506001600060405180828054600181600116156101000203166002900480156114865780601f10611464576101008083540402835291820191611486565b820191906000526020600020905b815481529060010190602001808311611472575b505091505090815260200160405180910390206008016003826040518082805190602001908083835b6020831015156114d457805182526020820191506020810190506020830392506114af565b6001836020036101000a03801982511681845116808217855250505050505090500191505090815260200160405180910390209080600181540180825580915050906001820390600052602060002090600302016000909192909190915060008201816000019080546001816001161561010002031660029004611559929190611776565b5060018201816001019080546001816001161561010002031660029004611581929190611776565b50600282018160020190805460018160011615610100020316600290046115a9929190611776565b5050505050505050565b6060836001836040518082805190602001908083835b6020831015156115ee57805182526020820191506020810190506020830392506115c9565b6001836020036101000a038019825116818451168082178552505050505050905001915050908152602001604051809103902060000190805190602001906116379291906118cd565b50826001836040518082805190602001908083835b602083101515611671578051825260208201915060208101905060208303925061164c565b6001836020036101000a038019825116818451168082178552505050505050905001915050908152602001604051809103902060010190805190602001906116ba9291906118cd565b5081600090805190602001906116d19291906118cd565b5060008054600181600116156101000203166002900480601f0160208091040260200160405190810160405280929190818152602001828054600181600116156101000203166002900480156117685780601f1061173d57610100808354040283529160200191611768565b820191906000526020600020905b81548152906001019060200180831161174b57829003601f168201915b505050505090509392505050565b828054600181600116156101000203166002900490600052602060002090601f016020900481019282601f106117af57805485556117ec565b828001600101855582156117ec57600052602060002091601f016020900482015b828111156117eb5782548255916001019190600101906117d0565b5b5090506117f9919061194d565b5090565b8280548282559060005260206000209060030281019282156118bc5760005260206000209160030282015b828111156118bb57828260008201816000019080546001816001161561010002031660029004611859929190611776565b5060018201816001019080546001816001161561010002031660029004611881929190611776565b50600282018160020190805460018160011615610100020316600290046118a9929190611776565b50505091600301919060030190611828565b5b5090506118c99190611972565b5090565b828054600181600116156101000203166002900490600052602060002090601f016020900481019282601f1061190e57805160ff191683800117855561193c565b8280016001018555821561193c579182015b8281111561193b578251825591602001919060010190611920565b5b509050611949919061194d565b5090565b61196f91905b8082111561196b576000816000905550600101611953565b5090565b90565b6119be91905b808211156119ba576000808201600061199191906119c1565b6001820160006119a191906119c1565b6002820160006119b191906119c1565b50600301611978565b5090565b90565b50805460018160011615610100020316600290046000825580601f106119e75750611a06565b601f016020900490600052602060002090810190611a05919061194d565b5b50565b600082601f8301121515611a1c57600080fd5b8135611a2f611a2a82612369565b61233c565b91508082526020830160208301858383011115611a4b57600080fd5b611a568382846124a3565b50505092915050565b600060208284031215611a7157600080fd5b600082013567ffffffffffffffff811115611a8b57600080fd5b611a9784828501611a09565b91505092915050565b600080600060608486031215611ab557600080fd5b600084013567ffffffffffffffff811115611acf57600080fd5b611adb86828701611a09565b935050602084013567ffffffffffffffff811115611af857600080fd5b611b0486828701611a09565b925050604084013567ffffffffffffffff811115611b2157600080fd5b611b2d86828701611a09565b9150509250925092565b60008060008060808587031215611b4d57600080fd5b600085013567ffffffffffffffff811115611b6757600080fd5b611b7387828801611a09565b945050602085013567ffffffffffffffff811115611b9057600080fd5b611b9c87828801611a09565b935050604085013567ffffffffffffffff811115611bb957600080fd5b611bc587828801611a09565b925050606085013567ffffffffffffffff811115611be257600080fd5b611bee87828801611a09565b91505092959194509250565b60008060008060008060c08789031215611c1357600080fd5b600087013567ffffffffffffffff811115611c2d57600080fd5b611c3989828a01611a09565b965050602087013567ffffffffffffffff811115611c5657600080fd5b611c6289828a01611a09565b955050604087013567ffffffffffffffff811115611c7f57600080fd5b611c8b89828a01611a09565b945050606087013567ffffffffffffffff811115611ca857600080fd5b611cb489828a01611a09565b935050608087013567ffffffffffffffff811115611cd157600080fd5b611cdd89828a01611a09565b92505060a087013567ffffffffffffffff811115611cfa57600080fd5b611d0689828a01611a09565b9150509295509295509295565b611d1c8161245b565b82525050565b6000611d2d826123e5565b80845260208401935083602082028501611d4685612395565b60005b84811015611d7f578383038852611d61838351611fd9565b9250611d6c82612427565b9150602088019750600181019050611d49565b508196508694505050505092915050565b6000611d9b826123f0565b80845260208401935083602082028501611db4856123a2565b60005b84811015611dec578383038852611dce8383612037565b9250611dd982612434565b9150602088019750600181019050611db7565b508196508694505050505092915050565b6000611e08826123fb565b80845260208401935083602082028501611e21856123b4565b60005b84811015611e5a578383038852611e3c838351612094565b9250611e4782612441565b9150602088019750600181019050611e24565b508196508694505050505092915050565b6000611e7682612406565b80845260208401935083602082028501611e8f856123c1565b60005b84811015611ec7578383038852611ea983836120d1565b9250611eb48261244e565b9150602088019750600181019050611e92565b508196508694505050505092915050565b611ee18161246d565b82525050565b6000611ef28261241c565b808452611f068160208601602086016124b2565b611f0f816124e5565b602085010191505092915050565b6000611f2882612411565b808452611f3c8160208601602086016124b2565b611f45816124e5565b602085010191505092915050565b600081546001811660008114611f705760018114611f9057611fd1565b607f600283041680865260ff198316602087015260408601935050611fd1565b60028204808652602086019550611fa6856123d3565b60005b82811015611fc857815481890152600182019150602081019050611fa9565b80880195505050505b505092915050565b60006060830160008301518482036000860152611ff68282611f1d565b915050602083015184820360208601526120108282611f1d565b9150506040830151848203604086015261202a8282611f1d565b9150508091505092915050565b600060608301600080840185830360008701526120548382611f53565b92505060018401858303602087015261206d8382611f53565b9250506002840185830360408701526120868382611f53565b925050819250505092915050565b60006040830160008301516120ac6000860182611d13565b50602083015184820360208601526120c48282611d22565b9150508091505092915050565b60006040830160008084015490506120e8816124f6565b6120f56000870182611d13565b5060018401858303602087015261210c8382611d90565b925050819250505092915050565b61212381612499565b82525050565b600060208201905081810360008301526121438184611dfd565b905092915050565b600060208201905081810360008301526121658184611e6b565b905092915050565b60006020820190506121826000830184611ed8565b92915050565b600060208201905081810360008301526121a28184611ee7565b905092915050565b600060e08201905081810360008301526121c4818a611ee7565b905081810360208301526121d88189611ee7565b905081810360408301526121ec8188611ee7565b905081810360608301526122008187611ee7565b905081810360808301526122148186611ee7565b905081810360a08301526122288185611ee7565b905081810360c083015261223c8184611ee7565b905098975050505050505050565b600060408201905081810360008301526122648185611ee7565b9050612273602083018461211a565b9392505050565b600060e0820190508181036000830152612294818a611f53565b905081810360208301526122a88189611f53565b905081810360408301526122bc8188611f53565b905081810360608301526122d08187611f53565b905081810360808301526122e48186611f53565b905081810360a08301526122f88185611f53565b905081810360c083015261230c8184611f53565b905098975050505050505050565b600060208201905081810360008301526123348184612037565b905092915050565b6000604051905081810181811067ffffffffffffffff8211171561235f57600080fd5b8060405250919050565b600067ffffffffffffffff82111561238057600080fd5b601f19601f8301169050602081019050919050565b6000602082019050919050565b60008160005260206000209050919050565b6000602082019050919050565b60008160005260206000209050919050565b60008160005260206000209050919050565b600081519050919050565b600081549050919050565b600081519050919050565b600081549050919050565b600081519050919050565b600081519050919050565b6000602082019050919050565b6000600182019050919050565b6000602082019050919050565b6000600182019050919050565b600061246682612479565b9050919050565b60008115159050919050565b600073ffffffffffffffffffffffffffffffffffffffff82169050919050565b6000819050919050565b82818337600083830152505050565b60005b838110156124d05780820151818401526020810190506124b5565b838111156124df576000848401525b50505050565b6000601f19601f8301169050919050565b600060018204905091905056fea265627a7a72305820eb0278827182c533d45fc6265817faf974b5adf4feda1b272d0af393cd80950a6c6578706572696d656e74616cf50037",
  "source": "pragma solidity ^0.5.0;\npragma experimental ABIEncoderV2;\n\ncontract IdentitiesChain {\n\n    struct Usuario{\n        string usuario;\n        string clave;\n        Cedula cedula;\n        Documento[] docs;\n        Permiso[] permisos;\n    }\n\n    struct Cedula{\n        string nombre;\n        string fecha;\n        string sexo;\n        string ciudad;\n        string departamento;\n        string url;\n    }\n\n    struct Documento{\n        string nombre;\n        string url;\n        string hash;\n    }\n\n    struct Permiso{\n        address duenio;\n        Documento[] docs;\n    }\n\n    string usuarioActivo;\n    mapping(string => Usuario) usuarios;\n    mapping(string => Permiso) permisos;\n    mapping(string => Documento) documentos;\n\n   constructor() public {}\n\n   function iniciarSesion(string memory _usuario, string memory _clave, string memory sender) public returns(bool){\n       require(keccak256(abi.encodePacked((usuarios[sender].usuario))) == keccak256(abi.encodePacked((_usuario))) && keccak256(abi.encodePacked((usuarios[sender].clave))) == keccak256(abi.encodePacked((_clave))) );\n       usuarioActivo = sender;\n       return true;\n   }\n\n   function nuevoUsuario(string memory _usuario, string memory _clave, string memory sender) public returns(string memory){\n        usuarios[sender].usuario = _usuario;\n        usuarios[sender].clave = _clave;\n        usuarioActivo = sender;\n        return usuarioActivo;\n    }\n\n    function getUsuario() public view returns(string memory) {\n        return usuarios[usuarioActivo].usuario;\n    }\n\n    function nuevaCedula(string memory _nombre, string memory _fecha, string memory _sexo, string memory _ciudad, string memory _departamento, string memory _url) public {\n\n        //Cedula memory _cedula = usuarios[usuarioActivo].cedula;\n        usuarios[usuarioActivo].cedula.nombre = _nombre;\n        usuarios[usuarioActivo].cedula.fecha = _fecha;\n        usuarios[usuarioActivo].cedula.sexo = _sexo;\n        usuarios[usuarioActivo].cedula.ciudad = _ciudad;\n        usuarios[usuarioActivo].cedula.departamento = _departamento;\n        usuarios[usuarioActivo].cedula.url = _url;\n    }\n\n    event Cedulita(\n        string nombre,\n        string fecha,\n        string sexo,\n        string ciudad,\n        string departamento,\n        string url,\n        string adr\n    );\n\n    function getCedula(string memory dir) public returns(string memory, string memory, string memory, string memory, string memory, string memory, string memory){\n        //Cedula memory _cedula = usuarios[usuarioActivo].cedula;\n        emit Cedulita(usuarios[usuarioActivo].cedula.nombre, usuarios[usuarioActivo].cedula.fecha, usuarios[usuarioActivo].cedula.sexo,\n         usuarios[usuarioActivo].cedula.ciudad, usuarios[usuarioActivo].cedula.departamento, usuarios[usuarioActivo].cedula.url, usuarioActivo);\n    }\n\n    function nuevoDocumento(string memory _nombre, string memory _url, string memory _hash, string memory _idDoc) public {\n        documentos[_idDoc].nombre = _nombre;\n        documentos[_idDoc].url = _url;\n        documentos[_idDoc].hash = _hash;\n        usuarios[usuarioActivo].docs.push(documentos[_idDoc]);\n    }\n\n    event Documentos(\n        Documento docs\n    );\n\n    function getDocumentos() public returns(string memory, uint){\n      for(uint i=0; i<usuarios[usuarioActivo].docs.length; i++){\n          emit Documentos(usuarios[usuarioActivo].docs[i]);\n      }\n    }\n\n    function compartir(string memory _destinatario, string memory _idDocs, string memory idPermiso) public {\n\n        permisos[idPermiso].duenio = msg.sender;\n        permisos[idPermiso].docs.push(documentos[_idDocs]);\n        usuarios[_destinatario].permisos.push(permisos[idPermiso]);\n    }\n\n    event Permisos(\n        Permiso[] perms\n    );\n\n    function getPermisos() public returns(Permiso[] memory p){\n        emit Permisos(usuarios[usuarioActivo].permisos);\n    }\n\n}\n",
  "sourcePath": "/home/santiago/Documentos/Blockchain/IdentitiesChainDAPP/contracts/IdentitiesChain.sol",
  "compiler": {
    "name": "solc",
    "version": "0.5.0+commit.1d4f565a.Emscripten.clang"
  },
  "schemaVersion": "3.0.9",
  "updatedAt": "2019-05-30T02:55:48.141Z",
  "devdoc": {
    "methods": {}
  },
  "userdoc": {
    "methods": {}
  }
}