{
  "contractName": "Reuniones",
  "abi": [
    {
      "inputs": [],
      "payable": false,
      "stateMutability": "nonpayable",
      "type": "constructor"
    },
    {
      "constant": false,
      "inputs": [
        {
          "name": "_idReunion",
          "type": "uint256"
        },
        {
          "name": "_tema",
          "type": "string"
        },
        {
          "name": "_fecha",
          "type": "string"
        }
      ],
      "name": "registrarReunion",
      "outputs": [],
      "payable": false,
      "stateMutability": "nonpayable",
      "type": "function"
    },
    {
      "constant": false,
      "inputs": [
        {
          "name": "_idReunion",
          "type": "uint256"
        },
        {
          "name": "_hash",
          "type": "string"
        },
        {
          "name": "_url",
          "type": "string"
        },
        {
          "name": "_idFoto",
          "type": "uint256"
        }
      ],
      "name": "registrarFoto",
      "outputs": [],
      "payable": false,
      "stateMutability": "nonpayable",
      "type": "function"
    },
    {
      "constant": true,
      "inputs": [
        {
          "name": "_idReunion",
          "type": "uint256"
        },
        {
          "name": "_idFoto",
          "type": "uint256"
        }
      ],
      "name": "buscarFoto",
      "outputs": [
        {
          "name": "",
          "type": "string"
        },
        {
          "name": "",
          "type": "string"
        }
      ],
      "payable": false,
      "stateMutability": "view",
      "type": "function"
    },
    {
      "constant": true,
      "inputs": [
        {
          "name": "_idReunion",
          "type": "uint256"
        }
      ],
      "name": "buscarReunion",
      "outputs": [
        {
          "name": "",
          "type": "string"
        },
        {
          "name": "",
          "type": "string"
        },
        {
          "name": "",
          "type": "uint256"
        }
      ],
      "payable": false,
      "stateMutability": "view",
      "type": "function"
    },
    {
      "constant": true,
      "inputs": [
        {
          "name": "_idReunion",
          "type": "uint256"
        }
      ],
      "name": "numFotosxReunion",
      "outputs": [
        {
          "name": "",
          "type": "uint256"
        }
      ],
      "payable": false,
      "stateMutability": "view",
      "type": "function"
    },
    {
      "constant": true,
      "inputs": [
        {
          "name": "_idReunion",
          "type": "uint256"
        },
        {
          "name": "_idFoto",
          "type": "uint256"
        },
        {
          "name": "_hash",
          "type": "string"
        }
      ],
      "name": "validarFoto",
      "outputs": [
        {
          "name": "",
          "type": "bool"
        }
      ],
      "payable": false,
      "stateMutability": "view",
      "type": "function"
    }
  ],
  "bytecode": "0x608060405234801561001057600080fd5b50610d6e806100206000396000f3fe608060405260043610610078576000357c0100000000000000000000000000000000000000000000000000000000900463ffffffff168063254e76e51461007d5780633a1cf418146101e65780634ee2df5f1461030d578063a52e565914610401578063b6d044fa1461052b578063bac8d4da1461057a575b600080fd5b34801561008957600080fd5b506101e4600480360360608110156100a057600080fd5b8101908080359060200190929190803590602001906401000000008111156100c757600080fd5b8201836020820111156100d957600080fd5b803590602001918460018302840111640100000000831117156100fb57600080fd5b91908080601f016020809104026020016040519081016040528093929190818152602001838380828437600081840152601f19601f8201169050808301925050505050505091929192908035906020019064010000000081111561015e57600080fd5b82018360208201111561017057600080fd5b8035906020019184600183028401116401000000008311171561019257600080fd5b91908080601f016020809104026020016040519081016040528093929190818152602001838380828437600081840152601f19601f8201169050808301925050505050505091929192905050506106ed565b005b3480156101f257600080fd5b5061021f6004803603602081101561020957600080fd5b8101908080359060200190929190505050610778565b604051808060200180602001848152602001838103835286818151815260200191508051906020019080838360005b8381101561026957808201518184015260208101905061024e565b50505050905090810190601f1680156102965780820380516001836020036101000a031916815260200191505b50838103825285818151815260200191508051906020019080838360005b838110156102cf5780820151818401526020810190506102b4565b50505050905090810190601f1680156102fc5780820380516001836020036101000a031916815260200191505b509550505050505060405180910390f35b34801561031957600080fd5b506103e76004803603606081101561033057600080fd5b8101908080359060200190929190803590602001909291908035906020019064010000000081111561036157600080fd5b82018360208201111561037357600080fd5b8035906020019184600183028401116401000000008311171561039557600080fd5b91908080601f016020809104026020016040519081016040528093929190818152602001838380828437600081840152601f19601f820116905080830192505050505050509192919290505050610902565b604051808215151515815260200191505060405180910390f35b34801561040d57600080fd5b506104446004803603604081101561042457600080fd5b810190808035906020019092919080359060200190929190505050610a2c565b604051808060200180602001838103835285818151815260200191508051906020019080838360005b8381101561048857808201518184015260208101905061046d565b50505050905090810190601f1680156104b55780820380516001836020036101000a031916815260200191505b50838103825284818151815260200191508051906020019080838360005b838110156104ee5780820151818401526020810190506104d3565b50505050905090810190601f16801561051b5780820380516001836020036101000a031916815260200191505b5094505050505060405180910390f35b34801561053757600080fd5b506105646004803603602081101561054e57600080fd5b8101908080359060200190929190505050610bca565b6040518082815260200191505060405180910390f35b34801561058657600080fd5b506106eb6004803603608081101561059d57600080fd5b8101908080359060200190929190803590602001906401000000008111156105c457600080fd5b8201836020820111156105d657600080fd5b803590602001918460018302840111640100000000831117156105f857600080fd5b91908080601f016020809104026020016040519081016040528093929190818152602001838380828437600081840152601f19601f8201169050808301925050505050505091929192908035906020019064010000000081111561065b57600080fd5b82018360208201111561066d57600080fd5b8035906020019184600183028401116401000000008311171561068f57600080fd5b91908080601f016020809104026020016040519081016040528093929190818152602001838380828437600081840152601f19601f82011690508083019250505050505050919291929080359060200190929190505050610be9565b005b6080604051908101604052808481526020018381526020018281526020016000815250600080858152602001908152602001600020600082015181600001556020820151816001019080519060200190610748929190610c9d565b506040820151816002019080519060200190610765929190610c9d565b5060608201518160030155905050505050565b606080600080600085815260200190815260200160002060010160008086815260200190815260200160002060020160008087815260200190815260200160002060030154828054600181600116156101000203166002900480601f0160208091040260200160405190810160405280929190818152602001828054600181600116156101000203166002900480156108525780601f1061082757610100808354040283529160200191610852565b820191906000526020600020905b81548152906001019060200180831161083557829003601f168201915b50505050509250818054600181600116156101000203166002900480601f0160208091040260200160405190810160405280929190818152602001828054600181600116156101000203166002900480156108ee5780601f106108c3576101008083540402835291602001916108ee565b820191906000526020600020905b8154815290600101906020018083116108d157829003601f168201915b505050505091509250925092509193909250565b6000816040516020018082805190602001908083835b60208310151561093d5780518252602082019150602081019050602083039250610918565b6001836020036101000a038019825116818451168082178552505050505050905001915050604051602081830303815290604052805190602001206001900460008086815260200190815260200160002060040160008581526020019081526020016000206001016040516020018082805460018160011615610100020316600290048015610a035780601f106109e1576101008083540402835291820191610a03565b820191906000526020600020905b8154815290600101906020018083116109ef575b505091505060405160208183030381529060405280519060200120600190041490509392505050565b606080606060008086815260200190815260200160002060040160008581526020019081526020016000206001018054600181600116156101000203166002900480601f016020809104026020016040519081016040528092919081815260200182805460018160011615610100020316600290048015610aee5780601f10610ac357610100808354040283529160200191610aee565b820191906000526020600020905b815481529060010190602001808311610ad157829003601f168201915b50505050509050606060008087815260200190815260200160002060040160008681526020019081526020016000206002018054600181600116156101000203166002900480601f016020809104026020016040519081016040528092919081815260200182805460018160011615610100020316600290048015610bb45780601f10610b8957610100808354040283529160200191610bb4565b820191906000526020600020905b815481529060010190602001808311610b9757829003601f168201915b5050505050905081819350935050509250929050565b6000806000838152602001908152602001600020600301549050919050565b606060405190810160405280828152602001848152602001838152506000808681526020019081526020016000206004016000838152602001908152602001600020600082015181600001556020820151816001019080519060200190610c51929190610c9d565b506040820151816002019080519060200190610c6e929190610c9d565b509050506000808581526020019081526020016000206003016000815480929190600101919050555050505050565b828054600181600116156101000203166002900490600052602060002090601f016020900481019282601f10610cde57805160ff1916838001178555610d0c565b82800160010185558215610d0c579182015b82811115610d0b578251825591602001919060010190610cf0565b5b509050610d199190610d1d565b5090565b610d3f91905b80821115610d3b576000816000905550600101610d23565b5090565b9056fea165627a7a72305820274917de5ab957c18fc67c3b212b512d9f36a2a3b0ceafb76c2988fbedf312360029",
  "source": "pragma solidity >=0.4.22 <0.6.0;\r\n\r\ncontract Reuniones{\r\n\r\n    struct foto{\r\n        uint id;\r\n        string hash;\r\n        string url;\r\n    }\r\n\r\n    struct reunion {\r\n        uint id;\r\n        string tema;\r\n        string fecha;\r\n        uint numF;\r\n        mapping (uint => foto) fotos;\r\n    }\r\n\r\n    mapping (uint => reunion) private reuniones;\r\n\r\n    constructor() public{}\r\n\r\n    function registrarReunion(uint _idReunion, string memory _tema, string memory _fecha) public{\r\n      reuniones [_idReunion] = reunion(_idReunion, _tema, _fecha, 0);\r\n    }\r\n\r\n    function registrarFoto(uint _idReunion, string memory _hash, string memory _url, uint _idFoto) public{\r\n        reuniones[_idReunion].fotos[_idFoto] = foto(_idFoto, _hash, _url);\r\n        reuniones[_idReunion].numF++;\r\n    }\r\n\r\n    function buscarFoto(uint _idReunion, uint _idFoto) public view returns (string memory, string memory){\r\n\r\n        string memory fHash = reuniones[_idReunion].fotos[_idFoto].hash;\r\n        string memory url = reuniones[_idReunion].fotos[_idFoto].url;\r\n\r\n        return(fHash, url);\r\n    }\r\n\r\n    function buscarReunion(uint _idReunion) public view returns (string memory, string memory, uint){\r\n        return(reuniones[_idReunion].tema, reuniones[_idReunion].fecha, reuniones[_idReunion].numF);\r\n    }\r\n\r\n    function numFotosxReunion(uint _idReunion) public view returns (uint){\r\n        return(reuniones[_idReunion].numF);\r\n    }\r\n\r\n    function validarFoto(uint _idReunion, uint _idFoto, string memory _hash) public view returns (bool){\r\n        return(uint(keccak256(abi.encodePacked(reuniones[_idReunion].fotos[_idFoto].hash)))==uint(keccak256(abi.encodePacked(_hash))));\r\n    }\r\n\r\n}\r\n",
  "sourcePath": "/home/santiago/Documentos/Blockchain/reunionesDAPP/contracts/Reuniones.sol",
  "compiler": {
    "name": "solc",
    "version": "0.5.0+commit.1d4f565a.Emscripten.clang"
  },
  "schemaVersion": "3.0.9",
  "updatedAt": "2019-05-29T23:14:09.985Z",
  "devdoc": {
    "methods": {}
  },
  "userdoc": {
    "methods": {}
  }
}